S00B00004C45442E7372656344
S11300000C9434000C943E000C943E000C943E007E
S11300100C943E000C943E000C943E000C943E0064
S11300200C943E000C943E000C943E000C943E0054
S11300300C943E000C943E000C943E000C943E0044
S11300400C943E000C943E000C943E000C943E0034
S11300500C943E000C943E000C943E000C943E0024
S11300600C943E000C943E0011241FBECFEFD8E048
S1130070DEBFCDBF0E94CC000C9413010C94000091
S113008020E030E008C0EFE9FFE03197F1F700C06D
S113009000002F5F3F4F82179307ACF708958AB192
S11300A080628AB98AB180648AB984B5836F84BD59
S11300B085B5816085BD8FEF87BD08958F929F922E
S11300C0AF92BF92CF92DF92EF92FF920F931F9362
S11300D0CF93DF936C017B014A01DB01ED91FC912D
S11300E0CFEFD0E0CE1BDF0B4FEF429FC001439F09
S11300F0900D112464E670E00E94EB005B016E1722
S11301007F07BCF0D6018C91882399F03196D701F2
S1130110ED93FC93C8010E944000F7018081918116
S1130120A816B90659F5D6018C91882339F11C9289
S113013025C02FEF289DC001299D900D112464E650
S113014070E00E94EB005B01E617F707BCF0D601F4
S11301508C91811113C03197D701ED93FC93C801A1
S11301600E944000F70180819181A816B90631F4FC
S1130170D6018C91811102C081E08C93CE01DF9174
S1130180CF911F910F91FF90EF90DF90CF90BF9090
S1130190AF909F908F900895CF93DF9300D01F92DC
S11301A0CDB7DEB788EE93E00E944F0081E08983EB
S11301B083E390E09B838A8302E310E028E230E04B
S11301C044E150E0BE016E5F7F4FCE0101960E9474
S11301D05E0087BDF1CF97FB072E16F4009407D07D
S11301E077FD09D00E94FF0007FC05D03EF49095EE
S11301F081959F4F0895709561957F4F0895AA1B2F
S1130200BB1B51E107C0AA1FBB1FA617B70710F0FD
S1130210A61BB70B881F991F5A95A9F7809590952F
S10D0220BC01CD010895F894FFCF4E
S9030000FC
